{
  "contractName": "INRToken",
  "abi": [
    {
      "constant": true,
      "inputs": [],
      "name": "totalSupply",
      "outputs": [
        {
          "name": "",
          "type": "uint256"
        }
      ],
      "payable": false,
      "stateMutability": "view",
      "type": "function"
    },
    {
      "constant": false,
      "inputs": [
        {
          "name": "sender",
          "type": "address"
        },
        {
          "name": "recipient",
          "type": "address"
        },
        {
          "name": "amount",
          "type": "uint256"
        }
      ],
      "name": "transferFrom",
      "outputs": [
        {
          "name": "",
          "type": "bool"
        }
      ],
      "payable": false,
      "stateMutability": "nonpayable",
      "type": "function"
    },
    {
      "constant": true,
      "inputs": [
        {
          "name": "account",
          "type": "address"
        }
      ],
      "name": "balanceOf",
      "outputs": [
        {
          "name": "",
          "type": "uint256"
        }
      ],
      "payable": false,
      "stateMutability": "view",
      "type": "function"
    },
    {
      "constant": false,
      "inputs": [
        {
          "name": "recipient",
          "type": "address"
        },
        {
          "name": "amount",
          "type": "uint256"
        }
      ],
      "name": "transfer",
      "outputs": [
        {
          "name": "",
          "type": "bool"
        }
      ],
      "payable": false,
      "stateMutability": "nonpayable",
      "type": "function"
    },
    {
      "inputs": [
        {
          "name": "_t",
          "type": "address"
        }
      ],
      "payable": true,
      "stateMutability": "payable",
      "type": "constructor"
    },
    {
      "anonymous": false,
      "inputs": [
        {
          "indexed": true,
          "name": "from",
          "type": "address"
        },
        {
          "indexed": true,
          "name": "to",
          "type": "address"
        },
        {
          "indexed": false,
          "name": "value",
          "type": "uint256"
        }
      ],
      "name": "Transfer",
      "type": "event"
    },
    {
      "anonymous": false,
      "inputs": [
        {
          "indexed": true,
          "name": "owner",
          "type": "address"
        },
        {
          "indexed": true,
          "name": "spender",
          "type": "address"
        },
        {
          "indexed": false,
          "name": "value",
          "type": "uint256"
        }
      ],
      "name": "Approval",
      "type": "event"
    },
    {
      "constant": false,
      "inputs": [
        {
          "name": "burnFrom",
          "type": "address"
        },
        {
          "name": "value",
          "type": "uint256"
        }
      ],
      "name": "burn",
      "outputs": [],
      "payable": false,
      "stateMutability": "nonpayable",
      "type": "function"
    },
    {
      "constant": true,
      "inputs": [],
      "name": "name",
      "outputs": [
        {
          "name": "",
          "type": "string"
        }
      ],
      "payable": false,
      "stateMutability": "view",
      "type": "function"
    },
    {
      "constant": true,
      "inputs": [],
      "name": "symbol",
      "outputs": [
        {
          "name": "",
          "type": "string"
        }
      ],
      "payable": false,
      "stateMutability": "view",
      "type": "function"
    },
    {
      "constant": true,
      "inputs": [],
      "name": "decimals",
      "outputs": [
        {
          "name": "",
          "type": "uint8"
        }
      ],
      "payable": false,
      "stateMutability": "view",
      "type": "function"
    }
  ],
  "bytecode": "0x608060405260405160208062000f3a833981018060405260208110156200002557600080fd5b81019080805190602001909291905050506040805190810160405280600881526020017f494e52546f6b656e00000000000000000000000000000000000000000000000081525060049080519060200190620000839291906200031d565b506040805190810160405280600481526020017f494e52540000000000000000000000000000000000000000000000000000000081525060059080519060200190620000d19291906200031d565b506002600660006101000a81548160ff021916908360ff1602179055506000620f424090506200011133826200015a640100000000026401000000009004565b81600360006101000a81548173ffffffffffffffffffffffffffffffffffffffff021916908373ffffffffffffffffffffffffffffffffffffffff1602179055505050620003cc565b6200017f81600254620002926401000000000262000aa8179091906401000000009004565b600281905550620001e6816000808573ffffffffffffffffffffffffffffffffffffffff1673ffffffffffffffffffffffffffffffffffffffff16815260200190815260200160002054620002926401000000000262000aa8179091906401000000009004565b6000808473ffffffffffffffffffffffffffffffffffffffff1673ffffffffffffffffffffffffffffffffffffffff168152602001908152602001600020819055508173ffffffffffffffffffffffffffffffffffffffff16600073ffffffffffffffffffffffffffffffffffffffff167fddf252ad1be2c89b69c2b068fc378daa952ba7f163c4a11628f55a4df523b3ef836040518082815260200191505060405180910390a35050565b600080828401905083811015151562000313576040517f08c379a000000000000000000000000000000000000000000000000000000000815260040180806020018281038252601b8152602001807f536166654d6174683a206164646974696f6e206f766572666c6f77000000000081525060200191505060405180910390fd5b8091505092915050565b828054600181600116156101000203166002900490600052602060002090601f016020900481019282601f106200036057805160ff191683800117855562000391565b8280016001018555821562000391579182015b828111156200039057825182559160200191906001019062000373565b5b509050620003a09190620003a4565b5090565b620003c991905b80821115620003c5576000816000905550600101620003ab565b5090565b90565b610b5e80620003dc6000396000f3fe60806040526004361061008e576000357c0100000000000000000000000000000000000000000000000000000000900463ffffffff16806306fdde031461009357806318160ddd1461012357806323b872dd1461014e578063313ce567146101e157806370a082311461021257806395d89b41146102775780639dc29fac14610307578063a9059cbb14610362575b600080fd5b34801561009f57600080fd5b506100a86103d5565b6040518080602001828103825283818151815260200191508051906020019080838360005b838110156100e85780820151818401526020810190506100cd565b50505050905090810190601f1680156101155780820380516001836020036101000a031916815260200191505b509250505060405180910390f35b34801561012f57600080fd5b50610138610477565b6040518082815260200191505060405180910390f35b34801561015a57600080fd5b506101c76004803603606081101561017157600080fd5b81019080803573ffffffffffffffffffffffffffffffffffffffff169060200190929190803573ffffffffffffffffffffffffffffffffffffffff16906020019092919080359060200190929190505050610481565b604051808215151515815260200191505060405180910390f35b3480156101ed57600080fd5b506101f6610584565b604051808260ff1660ff16815260200191505060405180910390f35b34801561021e57600080fd5b506102616004803603602081101561023557600080fd5b81019080803573ffffffffffffffffffffffffffffffffffffffff16906020019092919050505061059b565b6040518082815260200191505060405180910390f35b34801561028357600080fd5b5061028c6105e3565b6040518080602001828103825283818151815260200191508051906020019080838360005b838110156102cc5780820151818401526020810190506102b1565b50505050905090810190601f1680156102f95780820380516001836020036101000a031916815260200191505b509250505060405180910390f35b34801561031357600080fd5b506103606004803603604081101561032a57600080fd5b81019080803573ffffffffffffffffffffffffffffffffffffffff16906020019092919080359060200190929190505050610685565b005b34801561036e57600080fd5b506103bb6004803603604081101561038557600080fd5b81019080803573ffffffffffffffffffffffffffffffffffffffff16906020019092919080359060200190929190505050610693565b604051808215151515815260200191505060405180910390f35b606060048054600181600116156101000203166002900480601f01602080910402602001604051908101604052809291908181526020018280546001816001161561010002031660029004801561046d5780601f106104425761010080835404028352916020019161046d565b820191906000526020600020905b81548152906001019060200180831161045057829003601f168201915b5050505050905090565b6000600254905090565b6000600360009054906101000a900473ffffffffffffffffffffffffffffffffffffffff1673ffffffffffffffffffffffffffffffffffffffff163373ffffffffffffffffffffffffffffffffffffffff1614151561056e576040517f08c379a00000000000000000000000000000000000000000000000000000000081526004018080602001828103825260248152602001807f417574686f72697a6174696f6e206661696c65642c206e6f742073657420656e81526020017f746974790000000000000000000000000000000000000000000000000000000081525060400191505060405180910390fd5b6105798484846106aa565b600190509392505050565b6000600660009054906101000a900460ff16905090565b60008060008373ffffffffffffffffffffffffffffffffffffffff1673ffffffffffffffffffffffffffffffffffffffff168152602001908152602001600020549050919050565b606060058054600181600116156101000203166002900480601f01602080910402602001604051908101604052809291908181526020018280546001816001161561010002031660029004801561067b5780601f106106505761010080835404028352916020019161067b565b820191906000526020600020905b81548152906001019060200180831161065e57829003601f168201915b5050505050905090565b61068f828261083a565b5050565b60006106a03384846106aa565b6001905092915050565b6106fb816000808673ffffffffffffffffffffffffffffffffffffffff1673ffffffffffffffffffffffffffffffffffffffff16815260200190815260200160002054610a1d90919063ffffffff16565b6000808573ffffffffffffffffffffffffffffffffffffffff1673ffffffffffffffffffffffffffffffffffffffff1681526020019081526020016000208190555061078e816000808573ffffffffffffffffffffffffffffffffffffffff1673ffffffffffffffffffffffffffffffffffffffff16815260200190815260200160002054610aa890919063ffffffff16565b6000808473ffffffffffffffffffffffffffffffffffffffff1673ffffffffffffffffffffffffffffffffffffffff168152602001908152602001600020819055508173ffffffffffffffffffffffffffffffffffffffff168373ffffffffffffffffffffffffffffffffffffffff167fddf252ad1be2c89b69c2b068fc378daa952ba7f163c4a11628f55a4df523b3ef836040518082815260200191505060405180910390a3505050565b600073ffffffffffffffffffffffffffffffffffffffff168273ffffffffffffffffffffffffffffffffffffffff1614151515610905576040517f08c379a00000000000000000000000000000000000000000000000000000000081526004018080602001828103825260218152602001807f45524332303a206275726e2066726f6d20746865207a65726f2061646472657381526020017f730000000000000000000000000000000000000000000000000000000000000081525060400191505060405180910390fd5b61091a81600254610a1d90919063ffffffff16565b600281905550610971816000808573ffffffffffffffffffffffffffffffffffffffff1673ffffffffffffffffffffffffffffffffffffffff16815260200190815260200160002054610a1d90919063ffffffff16565b6000808473ffffffffffffffffffffffffffffffffffffffff1673ffffffffffffffffffffffffffffffffffffffff16815260200190815260200160002081905550600073ffffffffffffffffffffffffffffffffffffffff168273ffffffffffffffffffffffffffffffffffffffff167fddf252ad1be2c89b69c2b068fc378daa952ba7f163c4a11628f55a4df523b3ef836040518082815260200191505060405180910390a35050565b6000828211151515610a97576040517f08c379a000000000000000000000000000000000000000000000000000000000815260040180806020018281038252601e8152602001807f536166654d6174683a207375627472616374696f6e206f766572666c6f77000081525060200191505060405180910390fd5b600082840390508091505092915050565b6000808284019050838110151515610b28576040517f08c379a000000000000000000000000000000000000000000000000000000000815260040180806020018281038252601b8152602001807f536166654d6174683a206164646974696f6e206f766572666c6f77000000000081525060200191505060405180910390fd5b809150509291505056fea165627a7a723058209a3b698c3a72b648336675cd45572a570a9b5bc4f0a0c91fe6e94fbe99b169b50029",
  "source": "pragma solidity ^0.5.0;\n\nimport \"./ERC20.sol\";\n// Instead of manual storing of ERC20contracts we could have used open-zepplin git import link but since we wanted to define only needed functions\n// thats why we stoed it locally and defined as per need\n/**\n * @title INRToken\n * @author Sagar Chaurasia\n */\ncontract INRToken is ERC20 {\n\n    string private _name;\n    string private _symbol;\n    uint8 private _decimals;\n\n    /**\n    * Note : everything can be passed as parmeter (and same contract can be used for deploying USDT and INRT can be use ) ,\n    * but for task understanidng and simplicity i have hardcoded gthe values here\n    * Here , _t is the address of acuConverter\n    * NOTE 2: 2 point decimal precision will leverage us to carry out any token related transaction in cents/paise , \n    * in the same way where ether transaction deals with wei (18 point decimal)\n    * We have implemanted fixed supply token erc20 standard and , minitng only 10000 INR tokens or 1000000 paise tokens \n    */\n    constructor(address _t) public payable {\n      _name = \"INRToken\";\n      _symbol = \"INRT\";\n      _decimals = 2;\n      uint256 totalSupply = 1000000;\n      // Since its a fixed supply ERC token , all the tokens are minted to contract deployer\n      _mint(msg.sender, totalSupply);\n      setEntity = _t;\n\n    }\n\n    /**\n     * @dev Burns a specific amount of tokens.\n     * @param value number of tokens to be burned.\n     */\n    function burn(address burnFrom,  uint256 value) public {\n      _burn(burnFrom, value);\n    }\n\n    /**\n     * @return the name of the token.\n     */\n    function name() public view returns (string memory) {\n      return _name;\n    }\n\n    /**\n     * @return the symbol of the token.\n     */\n    function symbol() public view returns (string memory) {\n      return _symbol;\n    }\n\n    /**\n     * @return the number of decimals of the token.\n     */\n    function decimals() public view returns (uint8) {\n      return _decimals;\n    }\n    \n}",
  "sourcePath": "/home/sagar/Desktop/solution/aicumen_Task/INRToken/contracts/Non_flattened_contracts/INRToken.sol",
  "compiler": {
    "name": "solc",
    "version": "0.5.0+commit.1d4f565a.Emscripten.clang"
  },
  "schemaVersion": "3.0.6",
  "updatedAt": "2019-11-01T11:46:55.991Z",
  "devdoc": {
    "author": "Sagar Chaurasia",
    "methods": {
      "balanceOf(address)": {
        "details": "check balance of tokens for specific entity."
      },
      "burn(address,uint256)": {
        "details": "Burns a specific amount of tokens.",
        "params": {
          "value": "number of tokens to be burned."
        }
      },
      "decimals()": {
        "return": "the number of decimals of the token."
      },
      "name()": {
        "return": "the name of the token."
      },
      "symbol()": {
        "return": "the symbol of the token."
      },
      "totalSupply()": {
        "details": "retunrs total number of tokens."
      },
      "transfer(address,uint256)": {
        "details": "transfer tokens from sender to reciever."
      },
      "transferFrom(address,address,uint256)": {
        "details": "defining explicit arguments for transferring tokens as security mesure only set entities can carry out this method"
      }
    },
    "title": "INRToken"
  },
  "userdoc": {
    "methods": {
      "constructor": "Note : everything can be passed as parmeter (and same contract can be used for deploying USDT and INRT can be use ) , but for task understanidng and simplicity i have hardcoded gthe values here Here , _t is the address of acuConverter NOTE 2: 2 point decimal precision will leverage us to carry out any token related transaction in cents/paise ,  in the same way where ether transaction deals with wei (18 point decimal) We have implemanted fixed supply token erc20 standard and , minitng only 10000 INR tokens or 1000000 paise tokens "
    }
  }
}